:040000008A11FD2F35
:10006400831203134808FB004908FC004A08FD00FA
:100074005030F800C330F9004830FA008A113324B4
:100084008A11780883120313AD007908AE007A0848
:10009400AF000030AA00B330AB004430AC008A118A
:1000A4007C238A11831203132A08BA002B08BB008D
:1000B4002C08BC008A11EE228A11831203133B0818
:1000C400D0003A08CF00D101D2015208803ACB00C7
:1000D4005008803A4B02031D71284F08510203183F
:1000E4009828831203130614043083120313CC00DC
:1000F400B630CB00CB0B7C28CC0B7C2800008312C1
:1001040003130610043083120313CC00B630CB0063
:10011400CB0B8A28CC0B8A280000013083120313EE
:10012400D1070318D20A0030D207672883120313B9
:100134004808FB004908FC004A08FD005030F8005C
:10014400C330F9004830FA008A1133248A11780840
:1001540083120313BA007908BB007A08BC008A1121
:10016400EE22831203133A08CB003B08CC003C0870
:10017400CD003D08CE000800831203134808FB009D
:100184004908FC004A08FD005030F800C330F9006B
:100194004830FA008A1133248A1178088312031331
:1001A400AD007908AE007A08AF000030AA008E30A6
:1001B400AB004430AC008A117C238A1183120313F0
:1001C4002A08BA002B08BB002C08BC008A11EE22B6
:1001D4008A11831203133B08D0003A08CF00D101DF
:1001E400D2015208803ACB005008803A4B02031DDA
:1001F400FD284F08510203182429831203130614FF
:10020400033083120313CC00F130CB00CB0B08294D
:10021400CC0B08290D298312031306100330831213
:100224000313CC00F130CB00CB0B1629CC0B1629D1
:100234001B29013083120313D1070318D20A00309B
:10024400D207F328831203134808FB004908FC0073
:100254004A08FD005030F800C330F9004830FA0075
:100264008A1133248A11780883120313BA00790897
:10027400BB007A08BC008A11EE22831203133A08E9
:10028400CB003B08CC003C08CD003D08CE00080064
:10029400831203134808FB004908FC004A08FD00C8
:1002A4005030F800C330F9004830FA008A11332482
:1002B4008A11780883120313AD007908AE007A0816
:1002C400AF00C030AA00D430AB004430AC008A1177
:1002D4007C238A11831203132A08BA002B08BB005B
:1002E4002C08BC008A11EE228A11831203133B08E6
:1002F400D0003A08CF00D101D2015208803ACB0095
:100304005008803A4B02031D89294F0851020318F3
:10031400B029831203130614053083120313CC008F
:100324006930CB00CB0B9429CC0B942999298312E7
:1003340003130610053083120313CC006930CB007D
:10034400CB0BA229CC0BA229A729013083120313BA
:10035400D1070318D20A0030D2077F29831203136E
:100364004808FB004908FC004A08FD005030F8002A
:10037400C330F9004830FA008A1133248A1178080E
:1003840083120313BA007908BB007A08BC008A11EF
:10039400EE22831203133A08CB003B08CC003C083E
:1003A400CD003D08CE000800831203134808FB006B
:1003B4004908FC004A08FD005030F800C330F90039
:1003C4004830FA008A1133248A11780883120313FF
:1003D400AD007908AE007A08AF00C030AA005430EE
:1003E400AB004430AC008A117C238A1183120313BE
:1003F4002A08BA002B08BB002C08BC008A11EE2284
:100404008A11831203133B08D0003A08CF00D101AC
:10041400D2015208803ACB005008803A4B02031DA7
:10042400152A4F08510203183C2A83120313061499
:10043400F23083120313CB001F2A202ACB0B1E2A6F
:10044400232A242A0000831203130610F230831295
:100454000313CB002D2A2E2ACB0B2C2A312A322A25
:100464000000013083120313D1070318D20A0030AD
:10047400D2070B2A831203134808FB004908FC0027
:100484004A08FD005030F800C330F9004830FA0043
:100494008A1133248A11780883120313BA00790865
:1004A400BB007A08BC008A11EE22831203133A08B7
:1004B400CB003B08CC003C08CD003D08CE00080032
:1004C400831203134808FB004908FC004A08FD0096
:1004D4005030F800C330F9004830FA008A11332450
:1004E4008A11780883120313AD007908AE007A08E4
:1004F400AF006030AA009F30AB004430AC008A11DA
:100504007C238A11831203132A08BA002B08BB0028
:100514002C08BC008A11EE228A11831203133B08B3
:10052400D0003A08CF00D101D2015208803ACB0062
:100534005008803A4B02031DA12A4F0851020318A8
:10054400C82A831203130614043083120313CC0045
:100554004D30CB00CB0BAC2ACC0BAC2AB12A831286
:1005640003130610043083120313CC004D30CB0068
:10057400CB0BBA2ACC0BBA2ABF2A0130831203133D
:10058400D1070318D20A0030D207972A8312031323
:100594004808FB004908FC004A08FD005030F800F8
:1005A400C330F9004830FA008A1133248A117808DC
:1005B40083120313BA007908BB007A08BC008A11BD
:1005C400EE22831203133A08CB003B08CC003C080C
:1005D400CD003D08CE000800831203133A08BE0084
:1005E4003B08BF003C08C00003103F0D400DC10094
:1005F4004108C7004708031D082B0030BD00003028
:10060400BC000030BB000030BA0008003A08BE004D
:100614003B08BF003C08C00017300310C00CBF0CDF
:10062400BE0CFF3E031D0F2B3E08C1004108C20053
:10063400BB17FF30BA05FF30BB050030BC053A08D4
:10064400C3003B08C4003C08C500C6018E30C70285
:10065400C71F4A2B4708803A8F3E03183A2B0030B5
:10066400BD000030BC000030BB000030BA00080000
:1006740001300310C60CC50CC40CC30CFF3E031D93
:100684003B2B0130BE003E08C7070319652B3A2BEC
:1006940018304702031C622B0030BD000030BC0040
:1006A4000030BB000030BA0008000130BE00031067
:1006B400C30DC40DC50DC60DBE0B592B0130C702A9
:1006C4004708031D572B42080319732BC309C40998
:1006D400C509C609C30A0319C40A0319C50A0319BB
:1006E400C60A4608BD004508BC004408BB004308D0
:1006F400BA000800831203132D08B0002E08B100BD
:100704002F08B2000310310D320DB3003308B800C6
:100714003808031D942B0030AA000030AB000030D1
:10072400AC0008002A08B0002B08B1002C08B20065
:100734000310310D320DB3003308B9003908031D1D
:10074400AA2B0030AA000030AB000030AC00080037
:100754000030B5000030B6000030B70089303907EA
:10076400B0003008B8022D08B0002E08B1002F08E0
:10077400B20010300310B20CB10CB00CFF3E031DDC
:10078400BC2B3008B3003308B9002A08B0002B088A
:10079400B1002C08B20010300310B20CB10CB00C34
:1007A400FF3E031DCE2B3008B3003308B90680305A
:1007B400B0003008B905AE17FF30AD05FF30AE0507
:1007C4000030AF05AB17FF30AA05FF30AB05003092
:1007D400AC051830B0003008B40001300310B50D7A
:1007E400B60DB70DFF3E031DF02B2C082F02031D81
:1007F400012C2B082E02031D012C2A082D02031C98
:100804000E2C2A08AD022B08031C2B0FAE022C0859
:10081400031C2C0AAF02351401300310AD0DAE0DCC
:10082400AF0DFF3E031D0F2C0130B402031DEF2B4F
:100834003508F0003608F1003708F2003808B00037
:100844003008F3003908B1003108F4008A15402259
:10085400700883120313AA007108AB007208AC007D
:100864000800780883120313A0007908A1007A080D
:10087400A2000310210D220DA3002308A4002408C4
:10088400031D4B2C0030F8000030F9000030FA0052
:1008940008007B08A0007C08A1007D08A2000310CA
:1008A400210D220DA3002308A9002908031D612C92
:1008B4000030F8000030F9000030FA000800290880
:1008C4007B3EA0002008A4077808A0007908A100B6
:1008D4007A08A20010300310A20CA10CA00CFF3E59
:1008E400031D6D2C2008A3002308A9007B08A00089
:1008F4007C08A1007D08A20010300310A20CA10CFA
:10090400A00CFF3E031D7F2C2008A3002308A9068A
:100914008030A0002008A905F917FC17FF30FB055B
:10092400FF30FC050030FD050030A5000030A600B6
:100934000030A7000730A0002008A800781CB02CC5
:100944007B08A5077C08031103187C0A031DA6076E
:100954007D08031103187D0A031DA7070130031046
:10096400FA0CF90CF80CFF3E031DB12C01300310F6
:10097400FB0DFC0DFD0DFF3E031DB92C0130A8023B
:10098400031DA02C0930A0002008A800781CD82C36
:100994007B08A5077C08031103187C0A031DA6071E
:1009A4007D08031103187D0A031DA70701300310F6
:1009B400FA0CF90CF80CFF3E031DD92C013003107E
:1009C400A70CA60CA50CFF3E031DE12C0130A802C8
:1009D400031DC82C2508F0002608F1002708F200A2
:1009E4002408A0002008F3002908A1002108F4002D
:1009F4008A1540227008F8007108F9007208FA009C
:100A040008007030831603138F00023086008312AF
:100A14000313D601D7015708803AFF0080307F02C4
:100A2400031D162D023056020318632D0030831265
:100A34000313C8008030C9003E30CA008A15D82587
:100A44008A1183120313D801D9015908803AFF008F
:100A540080307F02031D302D073058020318502DBB
:100A6400003083120313C8008030C9003E30CA002E
:100A74008A15EC268A11013083120313D807031850
:100A8400D90A0030D9075908803AFF0080307F0224
:100A9400031D4E2D07305802031C322D01308312E2
:100AA4000313D6070318D70A0030D7075708803A2C
:100AB400FF0080307F02031D612D02305602031CAB
:100AC400182D003083120313C8008030C9003E3053
:100AD400CA008A114A218A1183120313DA01DB0145
:100AE4005B08803AFF0080307F02031D7B2D0730B6
:100AF4005A0203189B2D003083120313C800803060
:100B0400C9003E30CA008A1132208A110130831292
:100B14000313DA070318DB0A0030DB075B08803AAB
:100B2400FF0080307F02031D992D07305A02031CF9
:100B34007D2D023083120313D5004530D400A93033
:100B4400D300D30BA32DD40BA32DD50BA32D003091
:100B540083120313C8008030C9003E30CA008A11D2
:100B6400BE208A11003083120313C8008030C900EC
:100B74003E30CA008A11BE208A110030831203134A
:100B8400C8008030C9003E30CA008A1576278A1111
:100B9400003083120313C8008030C9003E30CA00FD
:100BA4008A1576278A11023083120313D500453043
:100BB400D400A930D300D30BDD2DD40BDD2DD50B00
:100BC400DD2DAB3083120313C800AA30C9003E30B8
:100BD400CA008A1162228A11003083120313C800EA
:100BE4000030C9003E30CA008A1162228A110030E6
:100BF40083120313C8008030C9003F30CA008A152D
:100C040062268A11AB3083120313C800AA30C900CC
:100C14003E30CA008A1562268A118E30831203136D
:100C2400C8006330C9003E30CA008A1540248A11C6
:100C34008E3083120313C8006330C9003E30CA00EB
:100C44008A1532238A118E3083120313C80063304D
:100C5400C9003E30CA008A15AC228A118E30831234
:100C64000313C8006330C9003E30CA008A155025FA
:100C74008A118E3083120313C8006330C9003E30DA
:100C8400CA008A15C8248A11003083120313C800CD
:100C94000030C9003F30CA008A1532238A1100305F
:100CA40083120313C8008030C9003E30CA008A157D
:100CB40040248A118E3083120313C8006330C900A4
:100CC4003E30CA008A1532238A11AB3083120313D3
:100CD400C800AA30C9003E30CA008A15B8238A1158
:100CE400003083120313C8008030C9003E30CA00AC
:100CF4008A11D6218A118E3083120313C8006330FF
:100D0400C9003E30CA008A1540248A11CD308312AE
:100D14000313C800CC30C9003E30CA008A11D62162
:100D24008A11493083120313C8009230C9003E303F
:100D3400CA008A1540248A118E3083120313C80016
:100D44006330C9003E30CA008A11D6218A110030AE
:100D540083120313C8008030C9003F30CA008A15CB
:100D640062268A11023083120313D5004530D40061
:100D7400A930D300D30BBC2ED40BBC2ED50BBC2E68
:100D8400AB3083120313C800AA30C9003E30CA0036
:100D94008A1162228A11003083120313C8000030C2
:100DA400C9003E30CA008A1162228A1100308312BF
:100DB4000313C8008030C9003F30CA008A15622678
:100DC4008A11AB3083120313C800AA30C9003E3025
:100DD400CA008A1562268A118E3083120313C80052
:100DE4006330C9003E30CA008A1540248A118E300F
:100DF40083120313C8006330C9003E30CA008A1549
:100E040032238A118E3083120313C8006330C90061
:100E14003E30CA008A15AC228A118E308312031325
:100E2400C8006330C9003E30CA008A1550258A11B3
:100E34008E3083120313C8006330C9003E30CA00E9
:100E44008A15C8248A11003083120313C8000030A5
:100E5400C9003F30CA008A1532238A110030831238
:100E64000313C8008030C9003E30CA008A154024EC
:100E74008A118E3083120313C8006330C9003E30D8
:100E8400CA008A1532238A11AB3083120313C800B7
:100E9400AA30C9003E30CA008A15B8238A1100302E
:100EA40083120313C8008030C9003E30CA008A117F
:100EB400D6218A118E3083120313C8006330C9000F
:100EC4003E30CA008A1540248A11CD3083120313A0
:100ED400C800CC30C9003E30CA008A11D6218A111C
:100EE400493083120313C8009230C9003E30CA004F
:100EF4008A1540248A118E3083120313C80063308C
:100F0400C9003E30CA008A11D6218A1100308312EA
:100F14000313C8000030C9004030CA008A15622695
:100F24008A11023083120313D5004530D400A9304E
:100F3400D300D30B9B2FD40B9B2FD50B9B2FAB3004
:100F440083120313C800AA30C9003E30CA008A15B0
:100F540062268A118E3083120313C8006330C900DD
:100F64003E30CA008A1562268A118E30831203131A
:100F7400C8006330C9003E30CA008A11D6218A11E4
:100F84008E3083120313C8006330C9003E30CA0098
:100F94008A1540248A11033083120313D5008A3042
:100FA400D4005530D300D30BD52FD40BD52FD50B6C
:100FB400D52F8E3083120313C8006330C9003E302E
:100FC400CA008A1562268A118E3083120313C80060
:100FD4006330C9003E30CA008A11D6218A118E308E
:100FE40083120313C8006330C9003E30CA008A1557
:0C0FF40062268A11002883018A11032D57
:1014800073080319482A720871047004031D5B2A4B
:101490000030F0000030F1000030F20008000130B0
:1014A000F5007508F30701300310F20CF10CF00C95
:1014B000FF3E031D542AFE3072050319762A4F2A77
:1014C0000130F5007508F3070130F007003003180C
:1014D0000130F107003003180130F207013003102A
:1014E000F20CF10CF00CFF3E031D6F2AFF30720569
:1014F0000319852A602A0130F30201300310F00D30
:10150000F10DF20DFF3E031D7E2AF11B8B2A0230E6
:10151000730203187B2A7318932AFF30F0057F307B
:10152000F105FF30F2050310F30C7308F500F60126
:10153000F70110300310F50DF60DF70DFF3E031DFA
:101540009A2A7508F0047608F1047708F204740802
:1015500003190800F2170800831203134808FB0060
:101560004908FC004A08FD005030F800C330F9007B
:101570004830FA008A1133248A157808831203133D
:10158000AD007908AE007A08AF008030AA00EE30D6
:10159000AB004330AC008A117C238A1583120313FD
:1015A0002A08BA002B08BB002C08BC008A11EE22C6
:1015B0008A15831203133B08D0003A08CF00D101EB
:1015C000D2015208803ACB005008803A4B02031DEA
:1015D000EB2A4F08510203180C2B83120313061435
:1015E000BE3083120313CB00F52ACB0BF42A000084
:1015F000831203130610BE3083120313CB00002B9B
:10160000CB0BFF2A0000013083120313D10703180C
:10161000D20A0030D207E12A831203134808FB00E4
:101620004908FC004A08FD005030F800C330F900BA
:101630004830FA008A1133248A157808831203137C
:10164000BA007908BB007A08BC008A11EE22831226
:1016500003133A08CB003B08CC003C08CD003D0802
:10166000CE000800831203134808FB004908FC0061
:101670004A08FD005030F800C330F9004830FA0045
:101680008A1133248A15780883120313AD00790870
:10169000AE007A08AF004030AA001F30AB004430E3
:1016A000AC008A117C238A15831203132A08BA001E
:1016B0002B08BB002C08BC008A11EE228A1583126D
:1016C00003133B08D0003A08CF00D101D2015208E1
:1016D000803ACB005008803A4B02031D712B4F0813
:1016E00051020318922B831203130614FE30831247
:1016F0000313CB007B2BCB0B7A2B0000831203133D
:101700000610FE3083120313CB00862BCB0B852BE8
:101710000000013083120313D1070318D20A0030EE
:10172000D207672B831203134808FB004908FC000B
:101730004A08FD005030F800C330F9004830FA0084
:101740008A1133248A15780883120313BA007908A2
:10175000BB007A08BC008A11EE22831203133A08F8
:10176000CB003B08CC003C08CD003D08CE00080073
:10177000831203134808FB004908FC004A08FD00D7
:101780005030F800C330F9004830FA008A11332491
:101790008A15780883120313AD007908AE007A0821
:1017A000AF000030AA003330AB004430AC008A11E7
:1017B0007C238A15831203132A08BA002B08BB0066
:1017C0002C08BC008A11EE228A15831203133B08F1
:1017D000D0003A08CF00D101D2015208803ACB00A4
:1017E0005008803A4B02031DF72B4F085102031893
:1017F0001A2C831203130614CC3083120313CB006C
:10180000012C022CCB0B002C0000831203130610BA
:10181000CC3083120313CB000D2C0E2CCB0B0C2CD5
:101820000000013083120313D1070318D20A0030DD
:10183000D207ED2B831203134808FB004908FC0074
:101840004A08FD005030F800C330F9004830FA0073
:101850008A1133248A15780883120313BA00790891
:10186000BB007A08BC008A11EE22831203133A08E7
:10187000CB003B08CC003C08CD003D08CE00080062
:10188000831203134808FB004908FC004A08FD00C6
:101890005030F800C330F9004830FA008A11332480
:1018A0008A15780883120313AD007908AE007A0810
:1018B000AF008030AA003D30AB004430AC008A114C
:1018C0007C238A15831203132A08BA002B08BB0055
:1018D0002C08BC008A11EE228A15831203133B08E0
:1018E000D0003A08CF00D101D2015208803ACB0093
:1018F0005008803A4B02031D7F2C4F0851020318F9
:10190000A22C831203130614D83083120313CB00C6
:10191000892C8A2CCB0B882C000083120313061011
:10192000D83083120313CB00952C962CCB0B942C20
:101930000000013083120313D1070318D20A0030CC
:10194000D207752C831203134808FB004908FC00DA
:101950004A08FD005030F800C330F9004830FA0062
:101960008A1133248A15780883120313BA00790880
:10197000BB007A08BC008A11EE22831203133A08D6
:10198000CB003B08CC003C08CD003D08CE00080051
:10199000831203134808FB004908FC004A08FD00B5
:1019A0005030F800C330F9004830FA008A1133246F
:1019B0008A15780883120313AD007908AE007A08FF
:1019C000AF000030AA000E30AB004430AC008A11EA
:1019D0007C238A15831203132A08BA002B08BB0044
:1019E0002C08BC008A11EE228A15831203133B08CF
:1019F000D0003A08CF00D101D2015208803ACB0082
:101A00005008803A4B02031D072D4F08510203185E
:101A10002A2D831203130614E23083120313CB0022
:101A2000112DCB0B102D142D000083120313061063
:101A3000E23083120313CB001D2DCB0B1C2D202D68
:101A40000000013083120313D1070318D20A0030BB
:101A5000D207FD2C831203134808FB004908FC0041
:101A60004A08FD005030F800C330F9004830FA0051
:101A70008A1133248A15780883120313BA0079086F
:101A8000BB007A08BC008A11EE22831203133A08C5
:101A9000CB003B08CC003C08CD003D08CE00080040
:101AA000831203134808FB004908FC004A08FD00A4
:101AB0005030F800C330F9004830FA008A1133245E
:101AC0008A15780883120313AD007908AE007A08EE
:101AD000AF000030AA00FD30AB004330AC008A11EB
:101AE0007C238A15831203132A08BA002B08BB0033
:101AF0002C08BC008A11EE228A15831203133B08BE
:101B0000D0003A08CF00D101D2015208803ACB0070
:101B10005008803A4B02031D8F2D4F0851020318C5
:101B2000B22D831203130614C93083120313CB00A2
:101B3000992DCB0B982D9C2D9D2D831203130610F0
:101B4000C93083120313CB00A52DCB0BA42DA82DD8
:101B5000A92D013083120313D1070318D20A0030D4
:101B6000D207852D831203134808FB004908FC00A7
:101B70004A08FD005030F800C330F9004830FA0040
:101B80008A1133248A15780883120313BA0079085E
:101B9000BB007A08BC008A11EE22831203133A08B4
:101BA000CB003B08CC003C08CD003D08CE0008002F
:101BB000831203134808FB004908FC004A08FD0093
:101BC0005030F800C330F9004830FA008A1133244D
:101BD0008A15780883120313AD007908AE007A08DD
:101BE000AF00E030AA00EE30AB004430AC008A1108
:101BF0007C238A15831203132A08BA002B08BB0022
:101C00002C08BC008A11EE228A15831203133B08AC
:101C1000D0003A08CF00D101D2015208803ACB005F
:101C20005008803A4B02031D172E4F08510203182B
:101C30003C2E831203130614053083120313CC00C9
:101C4000F530CB00CB0B222ECC0B222E83120313AC
:101C50000610053083120313CC00F530CB00CB0BFC
:101C60002F2ECC0B2F2E013083120313D107031814
:101C7000D20A0030D2070D2E831203134808FB004E
:101C80004908FC004A08FD005030F800C330F90054
:101C90004830FA008A1133248A1578088312031316
:101CA000BA007908BB007A08BC008A11EE228312C0
:101CB00003133A08CB003B08CC003C08CD003D089C
:101CC000CE000800831203134808FB004908FC00FB
:101CD0004A08FD005030F800C330F9004830FA00DF
:101CE0008A1133248A15780883120313AD0079080A
:101CF000AE007A08AF00C030AA006E30AB004430AE
:101D0000AC008A117C238A15831203132A08BA00B7
:101D10002B08BB002C08BC008A11EE228A15831206
:101D200003133B08D0003A08CF00D101D20152087A
:101D3000803ACB005008803A4B02031DA12E4F0879
:101D400051020318C62E83120313061403308312A4
:101D50000313CC007930CB00CB0BAC2ECC0BAC2ECC
:101D6000831203130610033083120313CC0079305F
:101D7000CB00CB0BB92ECC0BB92E01308312031341
:101D8000D1070318D20A0030D207972E831203130B
:101D90004808FB004908FC004A08FD005030F800E4
:101DA000C330F9004830FA008A1133248A157808C4
:101DB00083120313BA007908BB007A08BC008A11A9
:101DC000EE22831203133A08CB003B08CC003C08F8
:101DD000CD003D08CE000800831203134808FB0025
:101DE0004908FC004A08FD005030F800C330F900F3
:101DF0004830FA008A1133248A15780883120313B5
:101E0000AD007908AE007A08AF00A030AA00BD305E
:101E1000AB004430AC008A117C238A158312031373
:101E20002A08BA002B08BB002C08BC008A11EE223D
:101E30008A15831203133B08D0003A08CF00D10162
:101E4000D2015208803ACB005008803A4B02031D61
:101E50002B2F4F0851020318502F8312031306141F
:101E6000043083120313CC00EF30CB00CB0B362FA2
:101E7000CC0B362F83120313061004308312031386
:101E8000CC00EF30CB00CB0B432FCC0B432F0130DA
:101E900083120313D1070318D20A0030D207212F6F
:101EA000831203134808FB004908FC004A08FD00A0
:101EB0005030F800C330F9004830FA008A1133245A
:101EC0008A15780883120313BA007908BB007A08D0
:101ED000BC008A11EE22831203133A08CB003B08A0
:101EE000CC003C08CD003D08CE000800831203134F
:101EF0004808FB004908FC004A08FD005030F80083
:101F0000C330F9004830FA008A1133248A15780862
:101F100083120313AD007908AE007A08AF000030D9
:101F2000AA007D30AB004430AC008A117C238A15B6
:101F3000831203132A08BA002B08BB002C08BC002C
:101F40008A11EE228A15831203133B08D0003A0847
:101F5000CF00D101D2015208803ACB005008803A1C
:101F60004B02031DB52F4F0851020318DA2F8312BD
:101F700003130614033083120313CC009F30CB00ED
:101F8000CB0BC02FCC0BC02F8312031306100330D2
:101F900083120313CC009F30CB00CB0BCD2FCC0B87
:101FA000CD2F013083120313D1070318D20A00305A
:101FB000D207AB2F831203134808FB004908FC002B
:101FC0004A08FD005030F800C330F9004830FA00EC
:101FD0008A1133248A15780883120313BA0079080A
:101FE000BB007A08BC008A11EE22831203133A0860
:101FF000CB003B08CC003C08CD003D08CE000800DB
:04400E00D8FFFCFFDC
:00000001FF
